{
    "_format": "hh-sol-artifact-1",
    "contractName": "LoanProtocol",
    "sourceName": "contracts/LoanProtocol.sol",
    "abi": [
        {
            "inputs": [
                {
                    "internalType": "address",
                    "name": "_nativeToken",
                    "type": "address"
                },
                {
                    "internalType": "address",
                    "name": "_nibs",
                    "type": "address"
                },
                {
                    "internalType": "address",
                    "name": "_usdc",
                    "type": "address"
                }
            ],
            "stateMutability": "nonpayable",
            "type": "constructor"
        },
        {
            "inputs": [],
            "name": "ReentrancyGuardReentrantCall",
            "type": "error"
        },
        {
            "anonymous": false,
            "inputs": [
                {
                    "indexed": true,
                    "internalType": "address",
                    "name": "user",
                    "type": "address"
                },
                {
                    "indexed": true,
                    "internalType": "address",
                    "name": "token",
                    "type": "address"
                },
                {
                    "indexed": false,
                    "internalType": "uint256",
                    "name": "amount",
                    "type": "uint256"
                }
            ],
            "name": "Borrow",
            "type": "event"
        },
        {
            "anonymous": false,
            "inputs": [
                {
                    "indexed": true,
                    "internalType": "address",
                    "name": "user",
                    "type": "address"
                },
                {
                    "indexed": true,
                    "internalType": "address",
                    "name": "token",
                    "type": "address"
                },
                {
                    "indexed": false,
                    "internalType": "uint256",
                    "name": "amount",
                    "type": "uint256"
                }
            ],
            "name": "Deposit",
            "type": "event"
        },
        {
            "anonymous": false,
            "inputs": [
                {
                    "indexed": true,
                    "internalType": "address",
                    "name": "user",
                    "type": "address"
                },
                {
                    "indexed": true,
                    "internalType": "address",
                    "name": "token",
                    "type": "address"
                },
                {
                    "indexed": false,
                    "internalType": "uint256",
                    "name": "amount",
                    "type": "uint256"
                }
            ],
            "name": "Repay",
            "type": "event"
        },
        {
            "anonymous": false,
            "inputs": [
                {
                    "indexed": true,
                    "internalType": "address",
                    "name": "user",
                    "type": "address"
                },
                {
                    "indexed": true,
                    "internalType": "address",
                    "name": "token",
                    "type": "address"
                },
                {
                    "indexed": false,
                    "internalType": "uint256",
                    "name": "amount",
                    "type": "uint256"
                }
            ],
            "name": "Withdraw",
            "type": "event"
        },
        {
            "inputs": [
                {
                    "internalType": "address",
                    "name": "",
                    "type": "address"
                }
            ],
            "name": "assets",
            "outputs": [
                {
                    "internalType": "contract IERC20",
                    "name": "token",
                    "type": "address"
                },
                {
                    "internalType": "uint256",
                    "name": "totalDeposited",
                    "type": "uint256"
                },
                {
                    "internalType": "uint256",
                    "name": "totalBorrowed",
                    "type": "uint256"
                },
                {
                    "internalType": "uint256",
                    "name": "interestRate",
                    "type": "uint256"
                },
                {
                    "internalType": "uint256",
                    "name": "collateralFactor",
                    "type": "uint256"
                }
            ],
            "stateMutability": "view",
            "type": "function"
        },
        {
            "inputs": [
                {
                    "internalType": "uint256",
                    "name": "amount",
                    "type": "uint256"
                }
            ],
            "name": "borrowEther",
            "outputs": [],
            "stateMutability": "nonpayable",
            "type": "function"
        },
        {
            "inputs": [
                {
                    "internalType": "uint256",
                    "name": "amount",
                    "type": "uint256"
                }
            ],
            "name": "borrowNibs",
            "outputs": [],
            "stateMutability": "nonpayable",
            "type": "function"
        },
        {
            "inputs": [
                {
                    "internalType": "uint256",
                    "name": "amount",
                    "type": "uint256"
                }
            ],
            "name": "borrowUsdc",
            "outputs": [],
            "stateMutability": "nonpayable",
            "type": "function"
        },
        {
            "inputs": [],
            "name": "depositEther",
            "outputs": [],
            "stateMutability": "payable",
            "type": "function"
        },
        {
            "inputs": [
                {
                    "internalType": "uint256",
                    "name": "amount",
                    "type": "uint256"
                }
            ],
            "name": "depositNibs",
            "outputs": [],
            "stateMutability": "nonpayable",
            "type": "function"
        },
        {
            "inputs": [
                {
                    "internalType": "uint256",
                    "name": "amount",
                    "type": "uint256"
                }
            ],
            "name": "depositUsdc",
            "outputs": [],
            "stateMutability": "nonpayable",
            "type": "function"
        },
        {
            "inputs": [],
            "name": "nativeToken",
            "outputs": [
                {
                    "internalType": "address",
                    "name": "",
                    "type": "address"
                }
            ],
            "stateMutability": "view",
            "type": "function"
        },
        {
            "inputs": [],
            "name": "nibs",
            "outputs": [
                {
                    "internalType": "address",
                    "name": "",
                    "type": "address"
                }
            ],
            "stateMutability": "view",
            "type": "function"
        },
        {
            "inputs": [],
            "name": "repayEther",
            "outputs": [],
            "stateMutability": "payable",
            "type": "function"
        },
        {
            "inputs": [
                {
                    "internalType": "uint256",
                    "name": "amount",
                    "type": "uint256"
                }
            ],
            "name": "repayNibs",
            "outputs": [],
            "stateMutability": "nonpayable",
            "type": "function"
        },
        {
            "inputs": [
                {
                    "internalType": "uint256",
                    "name": "amount",
                    "type": "uint256"
                }
            ],
            "name": "repayUsdc",
            "outputs": [],
            "stateMutability": "nonpayable",
            "type": "function"
        },
        {
            "inputs": [],
            "name": "usdc",
            "outputs": [
                {
                    "internalType": "address",
                    "name": "",
                    "type": "address"
                }
            ],
            "stateMutability": "view",
            "type": "function"
        },
        {
            "inputs": [
                {
                    "internalType": "address",
                    "name": "",
                    "type": "address"
                }
            ],
            "name": "userEtherBorrows",
            "outputs": [
                {
                    "internalType": "uint256",
                    "name": "",
                    "type": "uint256"
                }
            ],
            "stateMutability": "view",
            "type": "function"
        },
        {
            "inputs": [
                {
                    "internalType": "address",
                    "name": "",
                    "type": "address"
                }
            ],
            "name": "userEtherDeposits",
            "outputs": [
                {
                    "internalType": "uint256",
                    "name": "",
                    "type": "uint256"
                }
            ],
            "stateMutability": "view",
            "type": "function"
        },
        {
            "inputs": [
                {
                    "internalType": "address",
                    "name": "",
                    "type": "address"
                }
            ],
            "name": "userNibsBorrows",
            "outputs": [
                {
                    "internalType": "uint256",
                    "name": "",
                    "type": "uint256"
                }
            ],
            "stateMutability": "view",
            "type": "function"
        },
        {
            "inputs": [
                {
                    "internalType": "address",
                    "name": "",
                    "type": "address"
                }
            ],
            "name": "userNibsDeposits",
            "outputs": [
                {
                    "internalType": "uint256",
                    "name": "",
                    "type": "uint256"
                }
            ],
            "stateMutability": "view",
            "type": "function"
        },
        {
            "inputs": [
                {
                    "internalType": "address",
                    "name": "",
                    "type": "address"
                }
            ],
            "name": "userUsdcBorrows",
            "outputs": [
                {
                    "internalType": "uint256",
                    "name": "",
                    "type": "uint256"
                }
            ],
            "stateMutability": "view",
            "type": "function"
        },
        {
            "inputs": [
                {
                    "internalType": "address",
                    "name": "",
                    "type": "address"
                }
            ],
            "name": "userUsdcDeposits",
            "outputs": [
                {
                    "internalType": "uint256",
                    "name": "",
                    "type": "uint256"
                }
            ],
            "stateMutability": "view",
            "type": "function"
        },
        {
            "inputs": [
                {
                    "internalType": "uint256",
                    "name": "amount",
                    "type": "uint256"
                }
            ],
            "name": "withdrawEther",
            "outputs": [],
            "stateMutability": "nonpayable",
            "type": "function"
        },
        {
            "inputs": [
                {
                    "internalType": "uint256",
                    "name": "amount",
                    "type": "uint256"
                }
            ],
            "name": "withdrawNibs",
            "outputs": [],
            "stateMutability": "nonpayable",
            "type": "function"
        },
        {
            "inputs": [
                {
                    "internalType": "uint256",
                    "name": "amount",
                    "type": "uint256"
                }
            ],
            "name": "withdrawUsdc",
            "outputs": [],
            "stateMutability": "nonpayable",
            "type": "function"
        }
    ],
    "bytecode": "0x608034620001e857601f620019a638819003918201601f191683019291906001600160401b03841183851017620001ed578160609284926040968752833981010312620001e8576004620000538262000223565b60206200006f856200006783870162000223565b950162000223565b600160009181835560018060a01b0380809616918160018060a01b031999848b600a541617600a551689600b541617600b551687600c541617600c5585620000b662000203565b918083528583018581528a8401868152606085019166b1a2bc2ec5000083526080860193670b1a2bc2ec50000085528852868952898d89209651168c87541617865551868601555160028501555160038401555191015583600b5416856200011d62000203565b918083528583018581528a84018681526060850191666a94d74f43000083526080860193670a688906bd8b000085528852868952898d89209651168c87541617865551868601555160028501555160038401555191015583600c5416936200018462000203565b968588528488019184835289808a01958087528560608c019866470de4df8200008a5260808d019a670c7d713b49da00008c5283525220985116908854161787555190860155516002850155516003840155519101555161176d9081620002398239f35b600080fd5b634e487b7160e01b600052604160045260246000fd5b6040519060a082016001600160401b03811183821017620001ed57604052565b51906001600160a01b0382168203620001e85756fe6040608081526004908136101561001557600080fd5b600091823560e01c9081631b3437ff14610f375781632357928e14610df55781632f84d24214610dbb5781633465875a14610d815783826337f97c9d14610ccf5782633bed33ce14610c1f575081633e413bee14610bf6578163536d0f7714610bbc5781635b06dece14610a78578163631a20ba146109555781637362137a1461091b5781637f0e9388146107bb578382638a973e17146106d157826398ea5fca1461062e57508163cce63a7e146105f4578163ccea2c07146104e4578163de467742146104aa578163e1758bd814610481578163e631910414610339578163ec900795146101b5578163f11b818814610144575063f9a61e6c1461011957600080fd5b34610140578160031936011261014057600b5490516001600160a01b039091168152602090f35b5080fd5b919050346101b15760203660031901126101b1576001600160a01b038235818116908190036101ad5784839160a0965260016020522090815416926001820154926002830154916003840154930154938151958652602086015284015260608301526080820152f35b8480fd5b8280fd5b9050346101b1576020806003193601126103355761024a908235926101d8611159565b6101e3841515611053565b338652600782526101f9848688205410156112cc565b600c546001600160a01b03908116875260018352858720805487516323b872dd60e01b8152339481019485523060208601526040850188905295929391928592879286169183918c91839160600190565b03925af190811561032b577f05f2eeda0e08e4b437f487c8d7d29b14537d15e3488170dc3de5dbdf8dac4684946002926102fe575b50338852600784526102a086888a205461029b818311156116e4565b6113e3565b3389526007855287892055016102be85825461029b818311156116e4565b90553386526007825284862054156102e4575b600c541693519283523392a36001815580f35b600982526102f985872082600c541690611498565b6102d1565b61031d90853d8711610324575b610315818361117c565b81019061119e565b503861027f565b503d61030b565b86513d89823e3d90fd5b8380fd5b9050346101b157602080600319360112610335576103b89082359261035c611159565b610367841515611053565b600b546001600160a01b03908116875260018352858720805487516323b872dd60e01b8152339481019485523060208601526040850188905295929391928592879286169183918c91839160600190565b03925af190811561032b577f5548c837ab068cf56a2c2479df0882a4922fd203edb7517321831d95078c5f6294600192610464575b50016103fa858254611720565b9055338652600382526104108486882054611720565b33875260038352858720556008825284862061043182600b54168092611392565b1561044b575b50600b541693519283523392a36001815580f35b61045e9033885260088452868820611115565b38610437565b61047a90853d871161032457610315818361117c565b50386103ed565b505034610140578160031936011261014057600a5490516001600160a01b039091168152602090f35b9050346101b15760203660031901126101b157356001600160a01b038116908190036101b157828291602094526006845220549051908152f35b9050346101b1576020806003193601126103355761052890823592610507611159565b610512841515611053565b33865260068252610367848688205410156112cc565b03925af190811561032b577f05f2eeda0e08e4b437f487c8d7d29b14537d15e3488170dc3de5dbdf8dac4684946002926105d7575b503388526006845261057986888a205461029b818311156116e4565b33895260068552878920550161059785825461029b818311156116e4565b90553386526006825284862054156105bd575b600b541693519283523392a36001815580f35b600982526105d285872082600b541690611498565b6105aa565b6105ed90853d871161032457610315818361117c565b503861055d565b9050346101b15760203660031901126101b15780356001600160a01b03811690819003610335579282916020948252845220549051908152f35b8084816003193601126106ce57610643611159565b61064e341515611053565b33825260026020526106633482842054611720565b338352600260205281832055600860205261067f818320611349565b156106b6575b513481527f5548c837ab068cf56a2c2479df0882a4922fd203edb7517321831d95078c5f6260203392a36001815580f35b33825260086020526106c98183206110cd565b610685565b50fd5b929150346107b7576020806003193601126107b2577f312a5e5e1079f5dda4e95dbbd0b908b291fd5b992ef22073643ab691572c5b52913592610712611159565b61071d841515611053565b600a54610740908590610739906001600160a01b031633611509565b1015611280565b338552600582526107548482872054611720565b33865260058352818620556009825261076e818620611349565b1561079b575b61078d8580808088335af16107876111fe565b5061123e565b519283523392a36001815580f35b338552600982526107ad8186206110cd565b610774565b505050fd5b5050fd5b9050346101b15760208060031936011261033557610889908235926107de611159565b6107e9841515611053565b338652600382526107ff848688205410156111bb565b818460018060a01b039283600b541689526001835283888a20338b5260038552610833848b8d205461029b818311156116e4565b338c52600386528a8c20556001810161085485825461029b818311156116e4565b905554895163a9059cbb60e01b815233938101938452602084019490945292968793919091169183918b918391604090910190565b03925af1928315610911577f9b1bfa7fa9ee420a16e124f794c35ac9f90472acc99140eb2f6447c714cad8eb936108f4575b503386526003825284862054156108df57600b541693519283523392a36001815580f35b600882526105d285872082600b541690611498565b61090a90833d851161032457610315818361117c565b50386108bb565b85513d88823e3d90fd5b9050346101b15760203660031901126101b157356001600160a01b038116908190036101b157828291602094526003845220549051908152f35b9050346101b157602080600319360112610335576109dc90823592610978611159565b610983841515611053565b600c546001600160a01b0391839186919084166109a4836107398333611509565b89526001835283888a20338b52600785526109c2848b8d2054611720565b338c52600786528a8c205560028101610854858254611720565b03925af1928315610911577f312a5e5e1079f5dda4e95dbbd0b908b291fd5b992ef22073643ab691572c5b5293610a5b575b5033865260098252848620610a2882600c54168092611392565b15610a42575b50600c541693519283523392a36001815580f35b610a559033885260098452868820611115565b38610a2e565b610a7190833d851161032457610315818361117c565b5038610a0e565b9050346101b1576020908160031936011261033557803591610a98611159565b610aa3831515611053565b338552818152610ab8838587205410156111bb565b60018060a01b0380600c541686526001825280858720338852848452610ae886888a205461029b818311156116e4565b3389528585528789205560018101610b0887825461029b818311156116e4565b905554865163a9059cbb60e01b81523386820190815260208101889052909592859287928390036040019183918c91165af193841561032b577f9b1bfa7fa9ee420a16e124f794c35ac9f90472acc99140eb2f6447c714cad8eb94610b9f575b5033875282528486205415610b8a57600c541693519283523392a36001815580f35b600882526102f985872082600c541690611498565b610bb590843d861161032457610315818361117c565b5038610b68565b9050346101b15760203660031901126101b157356001600160a01b038116908190036101b157828291602094526007845220549051908152f35b505034610140578160031936011261014057600c5490516001600160a01b039091168152602090f35b929150346107b7576020806003193601126107b2577f9b1bfa7fa9ee420a16e124f794c35ac9f90472acc99140eb2f6447c714cad8eb913592610c60611159565b610c6b841515611053565b33855260028252610c81848287205410156111bb565b33855260028252610c9c848287205461029b818311156116e4565b33865260028352808287205515610cc05761078d8580808088335af16107876111fe565b600882526107ad8186206113f0565b8084816003193601126106ce57610ce4611159565b610cef341515611053565b3382526005602052610d06348284205410156112cc565b3382526005602052610d2881832054610d21813411156116e4565b34906113e3565b3383526005602052808284205515610d6c575b513481527f05f2eeda0e08e4b437f487c8d7d29b14537d15e3488170dc3de5dbdf8dac468460203392a36001815580f35b6009602052610d7c8183206113f0565b610d3b565b9050346101b15760203660031901126101b157356001600160a01b038116908190036101b157828291602094526002845220549051908152f35b9050346101b15760203660031901126101b157356001600160a01b038116908190036101b157828291602094526005845220549051908152f35b9050346101b1576020908160031936011261033557803591610e15611159565b610e20831515611053565b600c546001600160a01b03908116865260018252848620805486516323b872dd60e01b81523381870190815230602082015260408101889052909592918591879186169082908c90829060600103925af1908115610f2d577f5548c837ab068cf56a2c2479df0882a4922fd203edb7517321831d95078c5f6295600192610f10575b5001610eaf868254611720565b9055338752808352610ec48587892054611720565b9033885283528587205560088252848620610ee482600c54168092611392565b15610efd5750600c541693519283523392a36001815580f35b610a559033885260088452868820611115565b610f2690863d881161032457610315818361117c565b5038610ea2565b87513d8a823e3d90fd5b9050346101b15760208060031936011261033557610fbe90823592610f5a611159565b610f65841515611053565b600b546001600160a01b039183918691908416610f86836107398333611509565b89526001835283888a20338b5260068552610fa4848b8d2054611720565b338c52600686528a8c205560028101610854858254611720565b03925af1928315610911577f312a5e5e1079f5dda4e95dbbd0b908b291fd5b992ef22073643ab691572c5b5293611036575b503386526009825284862061100a82600b54168092611392565b156110235750600b541693519283523392a36001815580f35b61045e9033885260098452868820611115565b61104c90833d851161032457610315818361117c565b5038610ff0565b1561105a57565b60405162461bcd60e51b815260206004820152601d60248201527f416d6f756e74206d7573742062652067726561746572207468616e20300000006044820152606490fd5b80548210156110b75760005260206000200190600090565b634e487b7160e01b600052603260045260246000fd5b8054600160401b8110156110ff576110ea9160018201815561109f565b81549060018060a01b039060031b1b19169055565b634e487b7160e01b600052604160045260246000fd5b90815491600160401b8310156110ff57826111389160016111579501815561109f565b90919082549060031b9160018060a01b03809116831b921b1916179055565b565b60026000541461116a576002600055565b604051633ee5aeb560e01b8152600490fd5b90601f8019910116810190811067ffffffffffffffff8211176110ff57604052565b908160209103126111b6575180151581036111b65790565b600080fd5b156111c257565b60405162461bcd60e51b8152602060048201526014602482015273496e73756666696369656e742062616c616e636560601b6044820152606490fd5b3d15611239573d9067ffffffffffffffff82116110ff576040519161122d601f8201601f19166020018461117c565b82523d6000602084013e565b606090565b1561124557565b60405162461bcd60e51b8152602060048201526013602482015272115512081d1c985b9cd9995c8819985a5b1959606a1b6044820152606490fd5b1561128757565b60405162461bcd60e51b815260206004820152601760248201527f496e73756666696369656e7420636f6c6c61746572616c0000000000000000006044820152606490fd5b156112d357565b60405162461bcd60e51b8152602060048201526024808201527f526570617920616d6f756e74206578636565647320626f72726f77656420616d6044820152631bdd5b9d60e21b6064820152608490fd5b60001981146113335760010190565b634e487b7160e01b600052601160045260246000fd5b60005b815481101561138b5761135f818361109f565b905460039190911b1c6001600160a01b0316156113845761137f90611324565b61134c565b5050600190565b5050600090565b9060005b82548110156113db576113a9818461109f565b905460039190911b1c6001600160a01b03908116908316146113d3576113ce90611324565b611396565b505050600190565b505050600090565b9190820391821161133357565b60005b8154908181101561149357611408818461109f565b90546001600160a01b0393600392909190831b1c84161561143457505061142f9150611324565b6113f3565b600019939192918185019182116113335761146393611456611138938861109f565b9054911b1c16918561109f565b8154801561147d57019061147a6110ea838361109f565b55565b634e487b7160e01b600052603160045260246000fd5b505050565b60005b815480821015611503576114af828461109f565b90546001600160a01b0392600392909190831b1c8316868416146114de575050506114d990611324565b61149b565b939450600019939092918482019182116113335761146393611456611138938861109f565b50505050565b600a546115a5926001600160a01b0390811692918116916000808585036115a85750509161156561157e61159893670de0b6b3a76400009516928360005260026020526040600020548693849161155f8461168b565b90611701565b0493600052600560205261155f6040600020549161168b565b04935b600052600160205260046040600020015490611701565b0461029b818311156116e4565b90565b600b54841694509085850361160c575050916115ec61160561159893670de0b6b3a76400009516928360005260036020526040600020548693849161155f8461168b565b0493600052600660205261155f6040600020549161168b565b0493611581565b9350939180600c541691828414611634575b505050670de0b6b3a76400009161159891611581565b611598939550670de0b6b3a76400009492604061166893611681931694858152600460205220548693849161155f8461168b565b0493600052600760205261155f6040600020549161168b565b049391819361161e565b600a546001600160a01b039182169190811682036116b15750506707cca005bbc5000090565b600b54811682036116ca5750506709b6e64a8ec6000090565b600c5416146116d857600090565b670de0b6b3a764000090565b156116eb57565b634e487b7160e01b600052600160045260246000fd5b90811561138b5780820291820490818103611333576115a591146116e4565b90810190818111611333576115a5908210156116e456fea2646970667358221220c92a4da94685ea6911df12d3411b58c056686205b3506716ce91d9965c89a7d564736f6c63430008140033",
    "linkReferences": {},
    "deployedLinkReferences": {}
}