{
	"_format": "hh-sol-artifact-1",
	"contractName": "StakingProtocol",
	"sourceName": "contracts/StakingProtocol.sol",
	"abi": [
		{
			"inputs": [
				{
					"internalType": "address",
					"name": "_token",
					"type": "address"
				},
				{
					"internalType": "address",
					"name": "_stEDU",
					"type": "address"
				},
				{
					"internalType": "address",
					"name": "_platformToken",
					"type": "address"
				}
			],
			"stateMutability": "nonpayable",
			"type": "constructor"
		},
		{
			"inputs": [
				{
					"internalType": "address",
					"name": "target",
					"type": "address"
				}
			],
			"name": "AddressEmptyCode",
			"type": "error"
		},
		{
			"inputs": [
				{
					"internalType": "address",
					"name": "account",
					"type": "address"
				}
			],
			"name": "AddressInsufficientBalance",
			"type": "error"
		},
		{
			"inputs": [],
			"name": "FailedInnerCall",
			"type": "error"
		},
		{
			"inputs": [
				{
					"internalType": "address",
					"name": "owner",
					"type": "address"
				}
			],
			"name": "OwnableInvalidOwner",
			"type": "error"
		},
		{
			"inputs": [
				{
					"internalType": "address",
					"name": "account",
					"type": "address"
				}
			],
			"name": "OwnableUnauthorizedAccount",
			"type": "error"
		},
		{
			"inputs": [
				{
					"internalType": "address",
					"name": "token",
					"type": "address"
				}
			],
			"name": "SafeERC20FailedOperation",
			"type": "error"
		},
		{
			"anonymous": false,
			"inputs": [
				{
					"indexed": true,
					"internalType": "address",
					"name": "user",
					"type": "address"
				},
				{
					"indexed": false,
					"internalType": "uint256",
					"name": "amount",
					"type": "uint256"
				}
			],
			"name": "Deposited",
			"type": "event"
		},
		{
			"anonymous": false,
			"inputs": [
				{
					"indexed": true,
					"internalType": "address",
					"name": "previousOwner",
					"type": "address"
				},
				{
					"indexed": true,
					"internalType": "address",
					"name": "newOwner",
					"type": "address"
				}
			],
			"name": "OwnershipTransferred",
			"type": "event"
		},
		{
			"anonymous": false,
			"inputs": [
				{
					"indexed": true,
					"internalType": "address",
					"name": "user",
					"type": "address"
				},
				{
					"indexed": false,
					"internalType": "uint256",
					"name": "stEDUAmount",
					"type": "uint256"
				},
				{
					"indexed": false,
					"internalType": "uint256",
					"name": "platformTokenAmount",
					"type": "uint256"
				}
			],
			"name": "RewardsClaimed",
			"type": "event"
		},
		{
			"anonymous": false,
			"inputs": [
				{
					"indexed": true,
					"internalType": "address",
					"name": "user",
					"type": "address"
				},
				{
					"indexed": false,
					"internalType": "uint256",
					"name": "amount",
					"type": "uint256"
				}
			],
			"name": "Staked",
			"type": "event"
		},
		{
			"anonymous": false,
			"inputs": [
				{
					"indexed": true,
					"internalType": "address",
					"name": "user",
					"type": "address"
				},
				{
					"indexed": false,
					"internalType": "uint256",
					"name": "amount",
					"type": "uint256"
				}
			],
			"name": "UnStaked",
			"type": "event"
		},
		{
			"anonymous": false,
			"inputs": [
				{
					"indexed": true,
					"internalType": "address",
					"name": "user",
					"type": "address"
				},
				{
					"indexed": false,
					"internalType": "uint256",
					"name": "amount",
					"type": "uint256"
				}
			],
			"name": "Withdrawn",
			"type": "event"
		},
		{
			"inputs": [],
			"name": "EDU_YIELD_RATE",
			"outputs": [
				{
					"internalType": "uint256",
					"name": "",
					"type": "uint256"
				}
			],
			"stateMutability": "view",
			"type": "function"
		},
		{
			"inputs": [],
			"name": "PLATFORM_REWARD_RATE",
			"outputs": [
				{
					"internalType": "uint256",
					"name": "",
					"type": "uint256"
				}
			],
			"stateMutability": "view",
			"type": "function"
		},
		{
			"inputs": [
				{
					"internalType": "address",
					"name": "",
					"type": "address"
				}
			],
			"name": "balances",
			"outputs": [
				{
					"internalType": "uint256",
					"name": "",
					"type": "uint256"
				}
			],
			"stateMutability": "view",
			"type": "function"
		},
		{
			"inputs": [],
			"name": "claimRewards",
			"outputs": [],
			"stateMutability": "nonpayable",
			"type": "function"
		},
		{
			"inputs": [
				{
					"internalType": "uint256",
					"name": "amount",
					"type": "uint256"
				}
			],
			"name": "deposit",
			"outputs": [],
			"stateMutability": "payable",
			"type": "function"
		},
		{
			"inputs": [
				{
					"internalType": "uint256",
					"name": "amount",
					"type": "uint256"
				}
			],
			"name": "depositAndStartStake",
			"outputs": [],
			"stateMutability": "payable",
			"type": "function"
		},
		{
			"inputs": [
				{
					"internalType": "uint256",
					"name": "amount",
					"type": "uint256"
				}
			],
			"name": "endStake",
			"outputs": [],
			"stateMutability": "nonpayable",
			"type": "function"
		},
		{
			"inputs": [
				{
					"internalType": "uint256",
					"name": "amount",
					"type": "uint256"
				}
			],
			"name": "endStakeAndWithdraw",
			"outputs": [],
			"stateMutability": "nonpayable",
			"type": "function"
		},
		{
			"inputs": [
				{
					"internalType": "address",
					"name": "user",
					"type": "address"
				}
			],
			"name": "getLastRewardsClaimTimestamp",
			"outputs": [
				{
					"internalType": "uint256",
					"name": "",
					"type": "uint256"
				}
			],
			"stateMutability": "view",
			"type": "function"
		},
		{
			"inputs": [
				{
					"internalType": "address",
					"name": "user",
					"type": "address"
				}
			],
			"name": "getPendingRewards",
			"outputs": [
				{
					"internalType": "uint256",
					"name": "stEDUReward",
					"type": "uint256"
				},
				{
					"internalType": "uint256",
					"name": "platformTokenReward",
					"type": "uint256"
				}
			],
			"stateMutability": "view",
			"type": "function"
		},
		{
			"inputs": [
				{
					"internalType": "address",
					"name": "account",
					"type": "address"
				}
			],
			"name": "getStakedBalance",
			"outputs": [
				{
					"internalType": "uint256",
					"name": "",
					"type": "uint256"
				}
			],
			"stateMutability": "view",
			"type": "function"
		},
		{
			"inputs": [
				{
					"internalType": "address",
					"name": "",
					"type": "address"
				}
			],
			"name": "lastRewardsClaimed",
			"outputs": [
				{
					"internalType": "uint256",
					"name": "",
					"type": "uint256"
				}
			],
			"stateMutability": "view",
			"type": "function"
		},
		{
			"inputs": [],
			"name": "owner",
			"outputs": [
				{
					"internalType": "address",
					"name": "",
					"type": "address"
				}
			],
			"stateMutability": "view",
			"type": "function"
		},
		{
			"inputs": [],
			"name": "platformToken",
			"outputs": [
				{
					"internalType": "contract IPlatformToken",
					"name": "",
					"type": "address"
				}
			],
			"stateMutability": "view",
			"type": "function"
		},
		{
			"inputs": [],
			"name": "renounceOwnership",
			"outputs": [],
			"stateMutability": "nonpayable",
			"type": "function"
		},
		{
			"inputs": [],
			"name": "stEDU",
			"outputs": [
				{
					"internalType": "contract IStakedEDU",
					"name": "",
					"type": "address"
				}
			],
			"stateMutability": "view",
			"type": "function"
		},
		{
			"inputs": [
				{
					"internalType": "uint256",
					"name": "",
					"type": "uint256"
				}
			],
			"name": "stakers",
			"outputs": [
				{
					"internalType": "address",
					"name": "",
					"type": "address"
				}
			],
			"stateMutability": "view",
			"type": "function"
		},
		{
			"inputs": [
				{
					"internalType": "address",
					"name": "",
					"type": "address"
				}
			],
			"name": "stakes",
			"outputs": [
				{
					"internalType": "uint256",
					"name": "",
					"type": "uint256"
				}
			],
			"stateMutability": "view",
			"type": "function"
		},
		{
			"inputs": [
				{
					"internalType": "address",
					"name": "",
					"type": "address"
				}
			],
			"name": "stakingTimestamp",
			"outputs": [
				{
					"internalType": "uint256",
					"name": "",
					"type": "uint256"
				}
			],
			"stateMutability": "view",
			"type": "function"
		},
		{
			"inputs": [
				{
					"internalType": "uint256",
					"name": "amount",
					"type": "uint256"
				}
			],
			"name": "startStake",
			"outputs": [],
			"stateMutability": "nonpayable",
			"type": "function"
		},
		{
			"inputs": [],
			"name": "token",
			"outputs": [
				{
					"internalType": "contract IERC20",
					"name": "",
					"type": "address"
				}
			],
			"stateMutability": "view",
			"type": "function"
		},
		{
			"inputs": [],
			"name": "totalStakes",
			"outputs": [
				{
					"internalType": "uint256",
					"name": "",
					"type": "uint256"
				}
			],
			"stateMutability": "view",
			"type": "function"
		},
		{
			"inputs": [
				{
					"internalType": "address",
					"name": "newOwner",
					"type": "address"
				}
			],
			"name": "transferOwnership",
			"outputs": [],
			"stateMutability": "nonpayable",
			"type": "function"
		},
		{
			"inputs": [
				{
					"internalType": "uint256",
					"name": "amount",
					"type": "uint256"
				}
			],
			"name": "withdraw",
			"outputs": [],
			"stateMutability": "nonpayable",
			"type": "function"
		},
		{
			"inputs": [
				{
					"internalType": "uint256",
					"name": "amount",
					"type": "uint256"
				}
			],
			"name": "withdrawToken",
			"outputs": [],
			"stateMutability": "nonpayable",
			"type": "function"
		},
		{
			"stateMutability": "payable",
			"type": "receive"
		}
	],
	"bytecode": "0x60e03461013357601f6113dc38819003918201601f19168301916001600160401b0383118484101761013857808492606094604052833981010312610133576100478161014e565b61005f60406100586020850161014e565b930161014e565b331561011a5760008054336001600160a01b0319821681178355604051956001600160a01b03958694919385939192908416907f8be0079c531659141344cd1fd0a4f28419497f9722a3daafe3b4186f6b6457e09080a3166080521660a0521660c0526112799081610163823960805181818161019b015281816104950152818161073d0152610a89015260a05181818161058201528181610c2b01528181610e3d015261109e015260c0518181816102d101526110130152f35b604051631e4fbdf760e01b815260006004820152602490fd5b600080fd5b634e487b7160e01b600052604160045260246000fd5b51906001600160a01b03821682036101335756fe60406080815260049081361015610020575b5050361561001e57600080fd5b005b600091823560e01c80630cbe28d61461067c5780630e2c6db61461065957806316934fc4146105b157806327e235e3146106205780632e1a7d4d14610603578063372500ab146105ea5780633a02a42d146105b15780633fea8aa81461056d578063421dd88c1461054b57806350baa6221461046c578063715018a6146104125780637309e0ed146103d957806376be2a12146103d95780638da5cb5b146103b15780638f0794fe14610378578063aaf6364014610352578063b51bd40f14610335578063b6b55f251461031d578063bf9befb114610300578063d1b812cd146102bc578063d9c5fbed14610298578063f2fde38b1461020a578063f6ed2017146101ce578063fc0c546a146101865763fd5e6dd1146101405750610011565b3461018257602036600319011261018257359160015483101561017f5750610169602092610699565b905491519160018060a01b039160031b1c168152f35b80fd5b8280fd5b5050346101ca57816003193601126101ca57517f00000000000000000000000000000000000000000000000000000000000000006001600160a01b03168152602090f35b5080fd5b508290346101ca5760203660031901126101ca5735906001600160a01b038216820361017f57506101fe90611162565b82519182526020820152f35b509034610182576020366003190112610182576001600160a01b038235818116939192908490036102945761023d6106e6565b831561027e57505082546001600160a01b0319811683178455167f8be0079c531659141344cd1fd0a4f28419497f9722a3daafe3b4186f6b6457e08380a380f35b51631e4fbdf760e01b8152908101849052602490fd5b8480fd5b838260203660031901126101ca576102b990356102b481610735565b610b9e565b80f35b5050346101ca57816003193601126101ca57517f00000000000000000000000000000000000000000000000000000000000000006001600160a01b03168152602090f35b503461018257826003193601126101825760209250549051908152f35b838260203660031901126101ca576102b99035610735565b8382346101ca5760203660031901126101ca576102b99035610b9e565b8382346101ca5760203660031901126101ca576102b9903561037381610ddd565b610a58565b503461018257602036600319011261018257356001600160a01b0381169081900361018257828291602094526005845220549051908152f35b5050346101ca57816003193601126101ca57905490516001600160a01b039091168152602090f35b503461018257602036600319011261018257356001600160a01b0381169081900361018257828291602094526006845220549051908152f35b833461017f578060031936011261017f5761042b6106e6565b80546001600160a01b03198116825581906001600160a01b03167f8be0079c531659141344cd1fd0a4f28419497f9722a3daafe3b4186f6b6457e08280a380f35b5090346101825760203660031901126101825781359161048a6106e6565b6001600160a01b03917f000000000000000000000000000000000000000000000000000000000000000083811673eeeeeeeeeeeeeeeeeeeeeeeeeeeeeeeeeeeeeeee0361053a57508347106104f75750508280806102b99481948254165af16104f161096a565b50610a1a565b906020606492519162461bcd60e51b8352820152601d60248201527f496e73756666696369656e7420636f6e74726163742062616c616e63650000006044820152fd5b9150506102b9929184541690610b5b565b5050346101ca57816003193601126101ca576020905166b1a2bc2ec500008152f35b5050346101ca57816003193601126101ca57517f00000000000000000000000000000000000000000000000000000000000000006001600160a01b03168152602090f35b503461018257602036600319011261018257356001600160a01b0381169081900361018257828291602094526003845220549051908152f35b833461017f578060031936011261017f576102b9610f34565b8382346101ca5760203660031901126101ca576102b99035610a58565b503461018257602036600319011261018257356001600160a01b0381169081900361018257828291602094526002845220549051908152f35b5050346101ca57816003193601126101ca5760209051670de0b6b3a76400008152f35b8382346101ca5760203660031901126101ca576102b99035610ddd565b6001548110156106d05760016000527fb10e2d527612073b26eecdfd717e6a320cf44b4afac2b0732d9fcbe2b7fa0cf60190600090565b634e487b7160e01b600052603260045260246000fd5b6000546001600160a01b031633036106fa57565b60405163118cdaa760e01b8152336004820152602490fd5b9190820180921161071f57565b634e487b7160e01b600052601160045260246000fd5b801561086d577f00000000000000000000000000000000000000000000000000000000000000006001600160a01b03811673eeeeeeeeeeeeeeeeeeeeeeeeeeeeeeeeeeeeeeee0361080857508034036107d2575b33600052600260205260406000206107a2828254610712565b90556040519081527f2da466a7b24304f47e87fa2e1e5a81b9831ce54fec19055ce277ca2f39ba42c460203392a2565b60405162461bcd60e51b815260206004820152600e60248201526d0acc2d8eaca40dad2e6dac2e8c6d60931b6044820152606490fd5b6040516323b872dd60e01b60208201523360248201523060448201526064808201849052815260a081019167ffffffffffffffff83118284101761085757610852926040526108e8565b610789565b634e487b7160e01b600052604160045260246000fd5b60405162461bcd60e51b815260206004820152601e60248201527f4465706f73697420616d6f756e742073686f756c64206e6f74206265203000006044820152606490fd5b67ffffffffffffffff811161085757604052565b90601f8019910116810190811067ffffffffffffffff82111761085757604052565b60018060a01b031690610912600080836020829551910182875af161090b61096a565b90846109aa565b908151918215159283610942575b50505061092a5750565b60249060405190635274afe760e01b82526004820152fd5b8192935090602091810103126101ca57602001519081159182150361017f5750388080610920565b3d156109a5573d9067ffffffffffffffff82116108575760405191610999601f8201601f1916602001846108c6565b82523d6000602084013e565b606090565b906109d157508051156109bf57805190602001fd5b604051630a12f52160e11b8152600490fd5b81511580610a04575b6109e2575090565b604051639996b31560e01b81526001600160a01b039091166004820152602490fd5b50803b156109da565b9190820391821161071f57565b15610a2157565b60405162461bcd60e51b815260206004820152600f60248201526e151c985b9cd9995c8819985a5b1959608a1b6044820152606490fd5b6000338152600260205281604082205410610b1f57338152600260205260408120610a84838254610a0d565b9055817f00000000000000000000000000000000000000000000000000000000000000006001600160a01b03811673eeeeeeeeeeeeeeeeeeeeeeeeeeeeeeeeeeeeeeee03610b0e575090808080610ae094335af16104f161096a565b6040519081527f7084f5476618d8e60b11ef0d7d3f06914655adb8793e28ff7f018d4c76d505d560203392a2565b610b1a92503390610b5b565b610ae0565b60405162461bcd60e51b8152602060048201526014602482015273496e73756666696369656e742062616c616e636560601b6044820152606490fd5b60405163a9059cbb60e01b60208201526001600160a01b03929092166024830152604480830193909352918152610b9c91610b976064836108c6565b6108e8565b565b908115610d81576000913383526020600281526040828186205410610d3e573385526003825280852054610d31575b33855260028252808520610be2848254610a0d565b905533855260038252808520610bf9848254610712565b9055610c0783600454610712565b60045533855260038252828186205414610cd8575b338552600582528085204290557f00000000000000000000000000000000000000000000000000000000000000006001600160a01b0316803b15610cd45781516340c10f1960e01b8152336004820152602481018590529086908290604490829084905af18015610cca577f9e71bc8eea02a63969f509818f2dafb9254532904319f9dbda79b67bd34a5f3d94959650610cbb575b50519283523392a2565b610cc4906108b2565b38610cb1565b82513d88823e3d90fd5b8580fd5b60015468010000000000000000811015610d1d57806001610cfc9201600155610699565b81546001600160a01b0360039290921b91821b19163390911b179055610c1c565b634e487b7160e01b86526041600452602486fd5b610d39610f34565b610bcd565b60649250519062461bcd60e51b82526004820152601a60248201527f4e6f7420656e6f75676820746f6b656e7320746f207374616b650000000000006044820152fd5b60405162461bcd60e51b815260206004820152602e60248201527f5374616b65206d757374206265206120706f73697469766520616d6f756e742060448201526d067726561746572207468616e20360941b6064820152608490fd5b60003381526003602052604090828282205410610edd57610dfc610f34565b3381526002602052818120610e12848254610712565b90553381526003602052818120610e2a848254610a0d565b9055610e3883600454610a0d565b6004557f00000000000000000000000000000000000000000000000000000000000000006001600160a01b0316803b156101ca578180916024855180958193630852cd8d60e31b83528960048401525af1908115610ed25750610ec3575b50519081527f79d3df6837cc49ff0e09fd3258e6e45594e0703445bb06825e9d75156eaee8f060203392a2565b610ecc906108b2565b38610e96565b8351903d90823e3d90fd5b815162461bcd60e51b815260206004820152601860248201527f4e6f7420656e6f75676820746f6b656e73207374616b656400000000000000006044820152606490fd5b8181029291811591840414171561071f57565b60009033825260206003815260408084205491821561112c5733855260058152610f618286205442610a0d565b66b1a2bc2ec50000840266b1a2bc2ec4ffff198582040161111857610f92826a1a1601fc4ea7109e00000092610f21565b0493670de0b6b3a7640000808202918204036111185769124bc0ddd92e5600000091610fbd91610f21565b04908361109c575b81611011575b7fdacbdde355ba930696a362ea6738feb9f8bd52dfb3d81947558fd3217e23e32593949533815260058252428482205560068252834291205582519485528401523392a2565b7f00000000000000000000000000000000000000000000000000000000000000006001600160a01b0316803b156110985783516340c10f1960e01b8152336004820152602481018490529087908290604490829084905af1801561108e5761107a575b50610fcb565b61108487916108b2565b610cd45738611074565b84513d89823e3d90fd5b8680fd5b7f00000000000000000000000000000000000000000000000000000000000000006001600160a01b0316803b156110985783516340c10f1960e01b8152336004820152602481018690529087908290604490829084905af1801561108e57611105575b50610fc5565b611111909691966108b2565b94386110ff565b634e487b7160e01b87526011600452602487fd5b606491519062461bcd60e51b8252600482015260116024820152704e6f207374616b65642062616c616e636560781b6044820152fd5b6001600160a01b03166000818152600360205260408120549192911561123d576005602052611195604082205442610a0d565b908381526003602052604081205466b1a2bc2ec5000090818102918183041490151715611229576111d2836a1a1601fc4ea7109e00000092610f21565b049381526003602052604081205490670de0b6b3a764000091828102928184041490151715611215575069124bc0ddd92e560000009161121191610f21565b0490565b634e487b7160e01b81526011600452602490fd5b634e487b7160e01b82526011600452602482fd5b9150819056fea2646970667358221220d2b046b3d24faddf23c9d13ab63f2d828f6f5d25a3a08e59ff2f43a1e36cd2e564736f6c63430008140033",
	"linkReferences": {},
	"deployedLinkReferences": {}
}